{
  "contractName": "Todolist",
  "abi": [
    {
      "constant": true,
      "inputs": [
        {
          "name": "",
          "type": "uint256"
        }
      ],
      "name": "tasks",
      "outputs": [
        {
          "name": "id",
          "type": "uint256"
        },
        {
          "name": "task",
          "type": "string"
        },
        {
          "name": "completed",
          "type": "bool"
        }
      ],
      "payable": false,
      "stateMutability": "view",
      "type": "function",
      "signature": "0x8d977672"
    },
    {
      "constant": true,
      "inputs": [],
      "name": "taskCount",
      "outputs": [
        {
          "name": "",
          "type": "uint256"
        }
      ],
      "payable": false,
      "stateMutability": "view",
      "type": "function",
      "signature": "0xb6cb58a5"
    },
    {
      "inputs": [],
      "payable": false,
      "stateMutability": "nonpayable",
      "type": "constructor",
      "signature": "constructor"
    },
    {
      "anonymous": false,
      "inputs": [
        {
          "indexed": false,
          "name": "id",
          "type": "uint256"
        },
        {
          "indexed": false,
          "name": "task",
          "type": "string"
        },
        {
          "indexed": false,
          "name": "completed",
          "type": "bool"
        }
      ],
      "name": "TaskCreated",
      "type": "event",
      "signature": "0x05d0fb833127fc08168556d0e7ca9554fc3f6bc843b3b7d2bf1c35aea6bab660"
    },
    {
      "constant": false,
      "inputs": [
        {
          "name": "_task",
          "type": "string"
        }
      ],
      "name": "addTask",
      "outputs": [],
      "payable": false,
      "stateMutability": "nonpayable",
      "type": "function",
      "signature": "0x67238562"
    },
    {
      "constant": true,
      "inputs": [],
      "name": "getTaskCount",
      "outputs": [
        {
          "name": "",
          "type": "uint256"
        }
      ],
      "payable": false,
      "stateMutability": "view",
      "type": "function",
      "signature": "0xc17a340e"
    },
    {
      "constant": true,
      "inputs": [
        {
          "name": "id",
          "type": "uint256"
        }
      ],
      "name": "taskList",
      "outputs": [
        {
          "name": "",
          "type": "uint256"
        },
        {
          "name": "",
          "type": "string"
        },
        {
          "name": "",
          "type": "bool"
        }
      ],
      "payable": false,
      "stateMutability": "view",
      "type": "function",
      "signature": "0x2a1c52a5"
    }
  ],
  "bytecode": "0x60806040526000805534801561001457600080fd5b5060408051808201909152600681527f48656c6f6f6f0000000000000000000000000000000000000000000000000000602082015261005b90640100000000610060810204565b61021f565b60008054600190810180835560408051606081018252828152602080820187815282840187905293865284815291909420845181559151805192936100ad93908501929190910190610184565b5060408201518160020160006101000a81548160ff0219169083151502179055509050507f05d0fb833127fc08168556d0e7ca9554fc3f6bc843b3b7d2bf1c35aea6bab660600054826000604051808481526020018060200183151515158152602001828103825284818151815260200191508051906020019080838360005b8381101561014557818101518382015260200161012d565b50505050905090810190601f1680156101725780820380516001836020036101000a031916815260200191505b5094505050505060405180910390a150565b828054600181600116156101000203166002900490600052602060002090601f016020900481019282601f106101c557805160ff19168380011785556101f2565b828001600101855582156101f2579182015b828111156101f25782518255916020019190600101906101d7565b506101fe929150610202565b5090565b61021c91905b808211156101fe5760008155600101610208565b90565b6105958061022e6000396000f3fe60806040526004361061006c5763ffffffff7c01000000000000000000000000000000000000000000000000000000006000350416632a1c52a5811461007157806367238562146101255780638d977672146101da578063b6cb58a514610204578063c17a340e1461022b575b600080fd5b34801561007d57600080fd5b5061009b6004803603602081101561009457600080fd5b5035610240565b604051808481526020018060200183151515158152602001828103825284818151815260200191508051906020019080838360005b838110156100e85781810151838201526020016100d0565b50505050905090810190601f1680156101155780820380516001836020036101000a031916815260200191505b5094505050505060405180910390f35b34801561013157600080fd5b506101d86004803603602081101561014857600080fd5b81019060208101813564010000000081111561016357600080fd5b82018360208201111561017557600080fd5b8035906020019184600183028401116401000000008311171561019757600080fd5b91908080601f0160208091040260200160405190810160405280939291908181526020018383808284376000920191909152509295506102f1945050505050565b005b3480156101e657600080fd5b5061009b600480360360208110156101fd57600080fd5b5035610415565b34801561021057600080fd5b506102196104c4565b60408051918252519081900360200190f35b34801561023757600080fd5b506102196104ca565b6000818152600160208181526040808420830180548251600295821615610100026000190190911694909404601f8101849004840285018401909252818452606093859387938592918491908301828280156102dd5780601f106102b2576101008083540402835291602001916102dd565b820191906000526020600020905b8154815290600101906020018083116102c057829003601f168201915b505050505091509250925092509193909250565b600080546001908101808355604080516060810182528281526020808201878152828401879052938652848152919094208451815591518051929361033e939085019291909101906104d1565b5060408201518160020160006101000a81548160ff0219169083151502179055509050507f05d0fb833127fc08168556d0e7ca9554fc3f6bc843b3b7d2bf1c35aea6bab660600054826000604051808481526020018060200183151515158152602001828103825284818151815260200191508051906020019080838360005b838110156103d65781810151838201526020016103be565b50505050905090810190601f1680156104035780820380516001836020036101000a031916815260200191505b5094505050505060405180910390a150565b600160208181526000928352604092839020805481840180548651600296821615610100026000190190911695909504601f810185900485028601850190965285855290949193929091908301828280156104b15780601f10610486576101008083540402835291602001916104b1565b820191906000526020600020905b81548152906001019060200180831161049457829003601f168201915b5050506002909301549192505060ff1683565b60005481565b6000545b90565b828054600181600116156101000203166002900490600052602060002090601f016020900481019282601f1061051257805160ff191683800117855561053f565b8280016001018555821561053f579182015b8281111561053f578251825591602001919060010190610524565b5061054b92915061054f565b5090565b6104ce91905b8082111561054b576000815560010161055556fea165627a7a7230582000e49c0f96fd17220fceb5b8a5035224c48d5fe0cf7671c16c850572c4a5ce670029",
  "source": "pragma solidity ^0.5.0; \r\ncontract Todolist{\r\n    uint public taskCount=0; \r\n    struct Task{\r\n        uint id; \r\n        string task;\r\n        bool completed;\r\n    }\r\n    mapping(uint=>Task) public tasks;\r\n    constructor() public{\r\n        addTask(\"Helooo\");\r\n    }\r\n    event TaskCreated(\r\n        uint id,\r\n        string task, \r\n        bool completed\r\n    );\r\n    function addTask(string memory _task) public{\r\n        taskCount+=1; \r\n        tasks[taskCount]=Task(taskCount,_task,false);\r\n        emit TaskCreated(taskCount,_task,false);\r\n    }\r\n    function getTaskCount() public view returns(uint){\r\n        return taskCount;\r\n    } \r\n    function taskList(uint id) public view returns(uint,string memory,bool){ \r\n        return (id,tasks[id].task,false);\r\n    }\r\n}",
  "sourcePath": "E:/todolist/contracts/Todolist.sol",
  "compiler": {
    "name": "solc",
    "version": "0.5.0+commit.1d4f565a.Emscripten.clang"
  },
  "schemaVersion": "3.0.1",
  "updatedAt": "2022-08-21T16:39:54.412Z",
  "devdoc": {
    "methods": {}
  },
  "userdoc": {
    "methods": {}
  }
}